:020000040800F2
:10000000F8070020890100088F2000087B1E0008E7
:100010008D20000825040008C1250008000000000C
:10002000000000000000000000000000D1200008D7
:10003000410400080000000091200008D3200008BF
:10004000A3010008A3010008A3010008A301000800
:10005000A3010008A3010008A3010008A3010008F0
:10006000A3010008A3010008A3010008A3010008E0
:10007000A3010008A30100082904000835040008B2
:10008000A3010008A3010008A3010008A3010008C0
:10009000A3010008A3010008A3010008A3010008B0
:1000A000A3010008A3010008A3010008A3010008A0
:1000B00051210008A3010008A3010008A3010008C2
:1000C000A3010008A3010008A3010008A301000880
:1000D000A3010008B5250008A3010008A30100083A
:1000E000A3010008A3010008A301000800F002F822
:1000F00000F03AF80AA090E8000C82448344AAF188
:100100000107DA4501D100F02FF8AFF2090EBAE885
:100110000F0013F0010F18BFFB1A43F0010318473B
:10012000902E0000B02E0000103A24BF78C878C18D
:10013000FAD8520724BF30C830C144BF04680C60ED
:10014000704700000023002400250026103A28BF35
:1001500078C1FBD8520728BF30C148BF0B60704739
:100160001FB51FBD10B510BD00F0B7F81146FFF761
:10017000F7FF02F07DFA00F0D5F803B4FFF7F2FFC5
:1001800003BC00F0DDF8000009488047094800473B
:10019000FEE7FEE7FEE7FEE7FEE7FEE7FEE7FEE737
:1001A000FEE7FEE704480549054A064B7047000094
:1001B0004F210008ED000008F8010020F80700209A
:1001C000F8030020F803002010B5431C02E010F8EB
:1001D000011B71B18107FAD14FF0013202C88C1AAC
:1001E0008C4314EAC211F9D0C01A0A0603D0C01E0B
:1001F00010BDC01A10BD0A0401D0801E10BD090236
:10020000FCD0401E10BD4FF0000200B513469446CE
:100210009646203922BFA0E80C50A0E80C50B1F15E
:100220002001BFF4F7AF090728BFA0E80C5048BF72
:100230000CC05DF804EB890028BF40F8042B08BF10
:10024000704748BF20F8022B11F0804F18BF00F80C
:10025000012B70474FF0013C50F8042B51F8043B40
:100260009A4221D1A2EB0C03934313EACC1317D18A
:1002700050F8042B51F8043B9A4215D1A2EB0C0321
:10028000934313EACC130BD150F8042B51F8043BE1
:100290009A4209D1A2EB0C03934313EACC13DBD0AF
:1002A0004FF00000704700BFD01A01BAB1FA81F1D7
:1002B00001F0180122FA01F0CB40C1F12001DBB2BC
:1002C000C0B2C01A2CFA01F3D11A914311EAC3113A
:1002D000E6D17047704770477047754600F02CF8BC
:1002E000AE4605006946534620F00700854618B023
:1002F00020B5FFF757FFBDE820404FF000064FF054
:1003000000074FF000084FF0000B21F00701AC464A
:10031000ACE8C009ACE8C009ACE8C009ACE8C00969
:100320008D46704710B50446AFF300802046BDE807
:100330001040FFF722BF00000048704794010020E2
:1003400001491820ABBEFEE72600020070470000FE
:1003500070B5044600688168C943C90717D1816830
:1003600021F00101816000F0E7FC05460AE000BFD2
:1003700000F0E2FC401B022804D920688068C043DA
:10038000C00706D020688068C043C007F0D00020B6
:1003900070BDA06A40F01000A062E06A40F0010069
:1003A000E062012070BD0000F8B50026044600960A
:1003B00000688168C943C9072DD0816841F00101F7
:1003C0008160164816490068B0FBF1F000E0401E5D
:1003D00000900028FBD100F0AFFC054616E000BFFE
:1003E00000F0AAFC401B022810D920688068C04396
:1003F000C0070BD0A06A40F01000A062E06A40F095
:100400000100E06284F824600120F8BD2068806863
:10041000C043C007E4D10020F8BD00004800002020
:1004200040420F00FEE70000014800F0B7BA0000AC
:1004300050010020014800F0B1BA00000C0100207A
:10044000704772B6FEE70000F8B50024009490F8FB
:1004500024202546012A12D0012280F824204A684F
:100460001F23072A0DD20668776B521E02EB820209
:1004700093409F430B6893401F43776319E002202A
:10048000F8BD06680D2A0AD2376BD21F02EB820232
:1004900093409F430B6893401F43376309E0F76A1B
:1004A0000D3A02EB820293409F430B6893401F4337
:1004B000F7620A68072306680A2A0AD3F7680A3A25
:1004C00002EB420293409F438B6893401F43F760C7
:1004D00008E0376902EB420293409F438B689340E8
:1004E0001F4337610A68102A01D0112A20D1124B0C
:1004F00002689A4217D193681B0219D4936843F497
:10050000000393600968102912D10C490C4A09684C
:10051000B1FBF2F101EB8101490000E0491E0091BD
:100520000029FBD104E0816A41F0200181620124AD
:1005300080F824502046F8BD0024014048000020E7
:1005400040420F000068C06C704700002DE9F04188
:100550004FF0000704003D467ED0A06A002628B96F
:10056000E66284F82460204600F07EF82046FFF71B
:10057000EFFEA16A01F01001014304D0A06A40F02F
:100580001000A06268E0A16A21F4885141F00201E4
:10059000A1626268E169237B0A4347EA43010A4397
:1005A000A1684FF48077B94208D0012906D0002114
:1005B00094F814C0BCF1010F02D00AE03946F7E705
:1005C000F3B1A36A43F02003A362E36A43F001039B
:1005D000E3622368D3F804C02CF4694C4CEA010CA4
:1005E000C3F804C023689968DFF870C001EA0C0101
:1005F00011439960A168B9420BD0012909D00CE0E0
:10060000DFF85CC0A3690CEB43330B4343F4006198
:10061000DFE7218A0D05A5F580152168CB6A23F453
:1006200070032B43CB62216889680E4B19409142BD
:1006300008D1E662A16A21F0020141F00101A16244
:10064000BDE8F081A06A20F0020040F01000A06236
:10065000E06A40F00100E0620120F1E7FDF7E1FF10
:1006600000E0FFFFFE0E1FFF00B585B000210091E6
:1006700001910291039100680E49884218D10E48F9
:10068000816941F400718161816901F40071049113
:10069000816941F0040181618069694600F00400CC
:1006A0000490F020009003200190044800F04EFADE
:1006B00005B000BD002401400010024000080140C8
:1006C0002DE9F84300270D460446009700F034FB5F
:1006D000804620688168C90508D5A06A40F02000DE
:1006E000A06284F824700120BDE8F8834168C90540
:1006F00003D4C06A10F4700F2AD0022000F0BAFBB5
:100700003B490968B1FBF0F62068036939490B429F
:100710004FEA61014FEAA1121FD1C3684FEA611C81
:1007200013EA0C0F19D103690B4225D1C06810429E
:1007300022D1142023E0681C0AD02DB100F0FCFA6D
:10074000A0EB0800A84203D920680068800725D5DF
:10075000206800688007EED52DE003690B4202D1C6
:10076000C168114206D0026923490A4206D1C06815
:10077000084203D1542002E0292000E0FC20464337
:10078000009816E0681C11D02DB100F0D5FAA0EB4E
:100790000800A8420AD90098B04207D2A06A40F0E7
:1007A0000400A06284F8247003209DE70098401C98
:1007B0000090B042E6D321686FF012000860A06A92
:1007C00040F40070A06220688068C0F342400728AF
:1007D0000CD1207B50B9A06A20F48070A062A06A7E
:1007E000C00403D4A06A40F00100A06200207BE7AF
:1007F00048000020244992244992240070B5044600
:1008000090F8240001280DD0012084F8240020460F
:10081000FFF7CAFD02004FF0000005D084F8240065
:10082000104670BD022070BDA16A40F201239943B9
:1008300041F48071A1621F4D23681F49AB4218D15A
:100840000E6816F4702F14D0A66A46F48016A662BD
:100850000E68760505D5A66A26F4005646F480563D
:10086000A662A66AF6040AD5E66A26F00606E662DD
:1008700006E0A66A26F48016A6625E68E9E7E062F2
:1008800084F824006FF00200186020688368C3F3C6
:100890004243072B05D1A84208D1096811F4702FF3
:1008A00004D0816841F480118160B9E7816841F426
:1008B000A001F9E7002801400424014010B590F898
:1008C00021100022022905D00421816380F8202014
:1008D000012010BD01680B6823F00E030B60016856
:1008E0000B6823F001030B6090F84030C46B0121CA
:1008F00001FA03F3636080F8211080F8202010468D
:1009000010BD000010B590F821100024022903D07A
:100910000421816301243DE001680A6822F00E028F
:100920000A6001680A6822F001020A601A4A016836
:10093000914201D1012121E0174A1432914201D1A3
:1009400010211BE0144A2832914201D1891515E08B
:10095000114A3C32914201D189140FE00E4A5032C3
:10096000914202D14FF4803108E00B4A6432914247
:1009700002D14FF4801101E04FF08071064A083A2D
:100980005160012180F82110002180F82010416B76
:1009900001B18847204610BD080002402DE9F05FF4
:1009A000C16B0C6801680B68D0F840C0042202FAE1
:1009B0000CF2494DDFF824A1494E4A4FDFF828B127
:1009C000DFF828E122422CD05A072AD50A6892067D
:1009D00003D40A6822F004020A600168A94201D126
:1009E000042219E0514501D1402215E0B14202D163
:1009F0004FF4806210E0B94202D14FF480420BE024
:100A0000594502D14FF4802206E0714502D14FF4DE
:100A1000800201E04FF080622F4908394A60C16AC4
:100A20003BE04FF0020808FA0CF818EA040F4FF008
:100A300000094FF0010235D05FEA837832D50B68A8
:100A40009B0605D40B6823F00A030B6080F8212075
:100A50000168A94201D1022219E0514501D12022A9
:100A600015E0B14202D14FF4007210E0B94202D158
:100A70004FF400520BE0594502D14FF4003206E02A
:100A8000714502D14FF4001201E04FF0007212499B
:100A900008394A6080F82090816A00291AD0BDE8A0
:100AA000F05F0847082505FA0CF5254212D01B0710
:100AB00010D50B6823F00E030B6090F84010C36B49
:100AC00002FA01F15960826380F8212080F82090B9
:100AD000016BE2E7BDE8F09F080002401C00024005
:100AE0003000024044000240580002406C000240C6
:100AF00030B528B308C8134914221944B1FBF2F1E8
:100B00008900C16310498163022141771A6843F665
:100B1000F0718A43D0E900142143D0E902452C4307
:100B200021430469214344692143846921431143DA
:100B3000196000214163012242770177084630BDE8
:100B4000012030BDF8FFFDBF000002402DE9F84F45
:100B5000DFF8B8910024A9F1040B23460F2709F10F
:100B6000040AABF1040EC9E00125A5402A40AA42BF
:100B70007DD1674ED1F804C0ACEB0608B44532D045
:100B800014DCBCF1030F3AD009DCBCF1000F2AD011
:100B9000BCF1010F1CD0BCF1020F31D11DE0BCF142
:100BA000110F17D0BCF1120F2AD119E0B8F5881F28
:100BB00019D006DCB8F5803F15D0B8F5801F1FD1DD
:100BC00011E0B8F5001F0ED0B8F5041F18D10AE0E7
:100BD000CB6815E0CB681B1D12E0CB6808330FE033
:100BE000CB680C330CE08B682BB1012B4FF0080362
:100BF00003D0456104E0042302E0056100E0002326
:100C0000FF2A01D8064601E000F104064FEA8405F8
:100C100001D9A5F12005D6F8008007FA05FC28EADD
:100C20000C0803FA05F548EA0508C6F800804D6887
:100C3000ED0062D5374DAE6946F00106AE61AD6993
:100C400024F0030605F001050095334D06EB050C75
:100C5000DCF80850A607360F07FA06F825EA08055B
:100C6000DFF8B880404503D14FF0000817E044E0BA
:100C7000DFF8AC80404502D14FF001080FE0DFF80B
:100C8000A480404502D14FF0020808E0DFF89880C8
:100C9000404502D14FF0030801E04FF0040808FA84
:100CA00006F848EA0508CCF808804D68D9F80060D5
:100CB000ED024D4601D5164300E096432E604D6887
:100CC000DAF80060AD02554601D5164300E09643C0
:100CD0002E604D68DBF80060AD035D4601D516431C
:100CE00000E096432E604D68DEF80060ED03754627
:100CF00001D5164300E096432E60641C0D682A4619
:100D0000E5407FF431AFBDE8F88F000008040140F2
:100D100000001110001002400000014000080140D6
:100D2000000C014000100140001401400AB10161B3
:100D300070470904FBE70000014880687047000025
:100D40003C000020024881680278114481607047AD
:100D50003C000020074810B5016841F01001016017
:100D6000032000F075F80F2000F006F800F024F8DA
:100D7000002010BD0020024070B50D4D04464FF418
:100D80007A712878B1FBF0F00A490968B1FBF0F0FC
:100D900000F0A4FB48B9102C07D200222146501EB7
:100DA00000F036F800206C6070BD012070BD0000BE
:100DB0003C000020480000200C4808B5816941F043
:100DC00001018161816901F001010091C16941F076
:100DD0008051C161C06900F08050009004484168B2
:100DE00021F0E06141F00071416008BD0010024057
:100DF00000000140002809DB00F01F0201219140A2
:100E00004009800000F1E020C0F8001170470000A8
:100E1000F0B40E4B1B680C46C3F30223C3F1070565
:100E2000042D00D90425191D072901D2002300E053
:100E3000DB1E012606FA05F1491E214099409E401D
:100E4000761E16403143F0BC01F0BBBB0CED00E058
:100E5000064900F0070208684FF6FF03184040EA11
:100E60000220034A10430860704700000CED00E0C8
:100E70000000FA0510B501460020234C012922D0BC
:100E8000022939D010291DD161682268D20119D5F3
:100E90001E48C1F38342C903805C0AD561681B4ABE
:100EA000C1F34041921E515C194AB2FBF1F1484333
:100EB00001E0184948436168490203D44000032116
:100EC000B0FBF1F010BD226AC2F30121012903D168
:100ED000920701D5C80310BD022905D1626A9207A5
:100EE00002D549F6404010BD0329FCD12168890391
:100EF000F9D54FF2244010BD00F02AF96168C1F322
:100F00008131491C4900DBE700100240882F0008AE
:100F100000127A0000093D002DE9F84305460078EB
:100F2000354CC00754D0E0690026C00008D4E06901
:100F300040F08050E061E069012600F080500090B0
:100F40002E480168C90512D40168804641F48071B9
:100F50000160FFF7F1FE074605E000BFFFF7ECFE7A
:100F6000C01B642823D8D8F80000C005F6D5206A35
:100F700010F4407021D0A98801F4407181421CD046
:100F8000206A1F49012220F440700A6000220A6092
:100F90002062C00711D0FFF7CFFE074641F2883824
:100FA00008E000BFFFF7C8FEC11B414502D903207E
:100FB000BDE8F883206A8007F4D5206A696820F4C8
:100FC0004070084320621EB1E06920F08050E0616B
:100FD0002878800705D56068A96820F44040084358
:100FE00060602878C00605D56068E96820F4800054
:100FF000084360600020DBE7001002400070004002
:10100000400442422DE9F0470F46050061D0434EAF
:10101000306800F00700B84209D2306820F00700BD
:1010200038433060306800F00700B84251D128687A
:101030003B4C810712D5400703D5606840F4E0605F
:1010400060602878000703D5606840F460506060F5
:101050006068A96820F0F000084360602878C00745
:1010600028D06868012810D02168022810D089078C
:1010700000292EDA616821F0030101436160FFF766
:101080005BFE804641F288390DE021688903EFE775
:101090008901EDE7FFF750FEA0EB0801494502D9B1
:1010A0000320BDE8F0876068696800F00C00B0EBD1
:1010B000810FEFD1306800F00700B8420BD93068DB
:1010C00020F0070038433060306800F00700B84275
:1010D00001D00120E5E72878400705D56068E96878
:1010E00020F4E060084360602878000706D5606857
:1010F000296920F4605040EAC100606000F038F8CF
:101100006168084AC1F30311515CC8400649086090
:1011100006480068FFF730FE0020C2E700200240CA
:1011200000100240982F00084800002040000020D6
:101130000448054900684968044AC1F30221515C2A
:10114000C84070474800002000100240A82F000847
:101150000448054900684968044AC1F3C221515C4A
:10116000C84070474800002000100240A82F000827
:101170000E4A51680E4801F00C03042B11D0082BC5
:101180000FD10C48C1F38343C903C05C0AD5516831
:10119000084AC1F34041921E515C054A5043B0FBDE
:1011A000F1F07047044948437047000000100240C6
:1011B00000127A00762F000800093D002DE9F84F53
:1011C000040070D02078C04DC00749D06868C0F3D3
:1011D0008100012807D06868C0F38100022809D186
:1011E0006868C00306D52868800339D56068002880
:1011F000E7D035E06068B0F5803F0BD010B1B0F5B6
:10120000A02F11D0286820F480302860286820F4AE
:10121000802002E0286840F480302860606890B147
:10122000FFF78AFD06460AE0286840F4802028601F
:10123000F0E700BFFFF780FD801B642873D82868A3
:101240008003F7D50CE0FFF777FD064605E000BF09
:10125000FFF772FD801B6428F0D828688003F7D45C
:1012600020789A4E80074FF001094FF0000839D5D9
:10127000686810F00C0F07D06868C0F3810002287E
:1012800009D16868C00306D42868800714D520698E
:10129000012808D110E02069B0B1C6F80090FFF72E
:1012A0004BFD074605E00AE1FFF746FDC01B02289B
:1012B000C4D828688007F7D52868616920F0F8004D
:1012C00040EAC10028600DE0C6F80080FFF734FD59
:1012D000074604E0FFF730FDC01B022823D828682A
:1012E0008007F7D4207800072CD57948A169D9B1B7
:1012F000C0F80090FFF720FD074604E0FFF71CFD53
:10130000C01B02280FD8686A8007F7D571484FF4D0
:10131000FA510068B0FBF1F0009000BF0098411E48
:101320000091FAD20EE080E0C0F80080FFF704FDE3
:10133000074604E0FFF700FDC01B022875D8686A65
:101340008007F7D42078400760D5E8690027C000FF
:1013500008D4E86940F08050E861E869012700F0AE
:10136000805000905C480168C90513D40168834629
:1013700041F480710160FFF7DFFC824606E000BFA8
:10138000FFF7DAFCA0EB0A0064284ED8DBF8000077
:10139000C005F5D5E06801280AD008B1052813D0AA
:1013A000286A20F001002862286A20F0040002E088
:1013B000286A40F001002862E06841F2883B98B159
:1013C000FFF7BAFC82460BE0286A40F0040028626E
:1013D000EEE700BFFFF7B0FCA0EB0A0159455AD871
:1013E000286A8007F6D50CE0FFF7A6FC824605E0E8
:1013F000FFF7A2FCA0EB0A0159454CD8286A8007E8
:10140000F6D41FB1E86920F08050E861E06988B344
:101410006968C1F38101022944D00228C6F86080BE
:1014200004D0FFF789FC044638E034E0FFF784FC81
:10143000074604E0FFF780FCC01B02282BD8286871
:101440008001F7D4206AB0F5803F05D16868A168B3
:1014500020F4003008436860D4E908010843696853
:1014600021F4741108436860C6F86090FFF764FCCB
:10147000044606E025E000BFFFF75EFC001B0228E3
:1014800009D828688001F7D51BE000BFFFF754FC9E
:10149000001B022802D90320BDE8F88F28688001CC
:1014A000F4D40EE00128F7D06868226A00F4803195
:1014B000914204D1616A00F47010884201D0012089
:1014C000EAE70020E8E70000001002400000424286
:1014D00080044242480000200070004010B5401EC9
:1014E000B0F1807F01D3012010BD4FF0E024606196
:1014F0000F21601701F065F80020A061072020612E
:10150000002010BD7047704770B590F83C20012A4C
:1015100026D0012480F83C40022280F83D20036858
:101520005A689D6822F070060A6832435A600D4B73
:1015300002689A4208D0B2F1804F05D00A4B9A4215
:1015400002D00A4B9A4204D1496825F0800319431E
:10155000916080F83D40002180F83C10084670BD45
:10156000022070BD002C0140000400400008004033
:1015700070472DE9F04104460068C66805694FF0E0
:101580000007A90713D5B10711D5F91E0161012084
:101590002077206880698007204602D0FFF7E8FFA7
:1015A00004E000F0A3F8204600F050F92777680720
:1015B00016D5700714D521686FF004000861022069
:1015C00020772068806910F4407F204602D0FFF722
:1015D000CFFF04E000F08AF8204600F037F92777C3
:1015E000280715D5300713D521686FF0080008616A
:1015F000042020772068C0698007204602D0FFF7CA
:10160000B7FF04E000F072F8204600F01FF92777DA
:10161000E80616D5F00614D521686FF010000861B1
:10162000082020772068C06910F4407F204602D04F
:10163000FFF79EFF04E000F059F8204600F006F99D
:101640002777E80708D0F00706D021686FF001007F
:101650000861204600F04AF9280608D5300606D56C
:1016600021686FF0800008612046FFF74BFF680695
:1016700008D5700606D521686FF040000861204645
:1016800000F035F9A8060AD5B00608D521686FF034
:10169000200008612046BDE8F041FFF734BFBDE8F7
:1016A000F081000000B585B0002100910191029108
:1016B00003910068B0F1804F12D10A48816941F06E
:1016C000040181618069694600F0040004900120F2
:1016D000009002200190032003900348FFF736FAA0
:1016E00005B000BD0010024000080140704770B511
:1016F000044690F83C0000260D4601280FD001203A
:1017000084F83C006AB1042A1DD0082A2FD00C2A84
:101710003FD00126002084F83C00304670BD0220F6
:1017200070BD206800F064FD2068816941F0080107
:1017300081612068816921F00401816120688169EB
:101740002A69114311E0206800F07AFD2068816960
:1017500041F4006181612068816921F480618161C7
:10176000206881692A6941EA02218161D2E7206803
:1017700000F092FD2068C16941F00801C161206854
:10178000C16921F00401C1612068C1692A6911435E
:1017900011E0206800F0ACFD2068C16941F40061EF
:1017A000C1612068C16921F48061C1612068C1699B
:1017B0002A6941EA0221C161ACE710B5040003D0F7
:1017C00094F83D0010B107E0012010BD002084F81E
:1017D0003C00204600F01EF8022084F83D00211D48
:1017E000206800F0BBFC012084F8460084F83E002D
:1017F00084F83F0084F8400084F8410084F84200F7
:1018000084F8430084F8440084F8450084F83D00DF
:10181000002010BD08B50068B0F1804F12D10A4811
:10182000C16941F00101C161C069002200F00100FD
:10183000009011461C20FFF7EBFABDE808401C2081
:10184000FFF7D8BA08BD0000001002407047000042
:1018500010B50446022249B104290ED0082913D03C
:1018600094F84100012816D0012010BD94F83E00E4
:101870000128F9D184F83E200FE094F83F000128B8
:10188000F2D184F83F2008E094F840000128EBD121
:1018900084F8402001E084F841200122206800F013
:1018A00099FC0F492068884203D1426C42F40042FF
:1018B00042642068884208D0B0F1804F05D00949C1
:1018C000884202D00849884204D1816801F00701AA
:1018D000062903D0016841F001010160002010BD1C
:1018E000002C014000040040000800407047704791
:1018F00070477047F8B5016804460868CA684B69C4
:1019000010F00F0F4FF000055AD003F0010602F45B
:101910009077374365D0C10705D0D10503D5616CF9
:1019200041F001016164410705D5D90703D0616C1D
:1019300041F002016164810705D5D90703D0616CCC
:1019400041F004016164010707D502F02001314331
:1019500003D0616C41F008016164616C00293BD0E7
:10196000800604D5900602D5204600F012FD2068BE
:101970004069616CC0F3801001F00801014320460A
:101980002BD000F0DFFC20684069400621D520689C
:10199000143050E8001F21F0400140E80012002AF6
:1019A000F5D1E06BA8B16D494163E06BFEF7AAFF8A
:1019B000002811D0E06B416B01B0BDE8F040084752
:1019C00083060ED593060CD52046BDE8F84000F0FE
:1019D000E0BC2046FFF78DFFF8BDFFF78AFF656486
:1019E000F8BD266B2023012E7CD1C6067AD5D606FB
:1019F00078D508684868009048694FF002064006AC
:101A000040D5E16B086840680004000CE8D0A28D66
:101A10008242E5D9E085886920282DD020680C30E5
:101A200050E8001F21F4807140E80012002AF5D12F
:101A30002168143151E8000F20F0010041E8000254
:101A4000002AF5D12068143050E8001F21F0400131
:101A500040E80012002AF5D184F84230256320685E
:101A60000C3050E8001F21F0100140E80012002A5D
:101A7000F5D1E06BFEF722FF6663A08DE18D401A81
:101A800081B22AE0A08DE18D401A81B2E08D00285C
:101A9000A6D00029A4D022680C3252E8000F20F40E
:101AA000907042E80007002FF5D12068143050E80C
:101AB000002F22F0010240E80027002FF5D184F822
:101AC0004230256320680C3050E8002F22F01002CD
:101AD00040E80023002BF5D166632046FFF708FF9E
:101AE000F8BDFFE705062BD5150629D594F841006A
:101AF0002128F5D1A068B0F5805F01D12069B0B18F
:101B0000206A411C2162216800784860E08C401EF8
:101B10000004000CE084E3D12068C16821F080015A
:101B2000C1602068C16841F04001C160D8E7206A07
:101B30000088C0F308004860206A801C2062E5E746
:101B40004006CDD55006CBD5CA68204622F04002CB
:101B5000CA6084F8413000F08FF9C1E735230008EE
:101B600070B5040004D094F84100002510B106E0DF
:101B7000012070BD84F84050204600F023F8242056
:101B800084F841002068C16821F40051C1602046FA
:101B900000F060FC2068016921F490410161206837
:101BA000416921F02A0141612068C16841F4005176
:101BB000C1606564202084F8410084F842006563B8
:101BC000002070BDF0B585B0002406460094019455
:101BD0000294039400682D49884254D12C488169AD
:101BE00041F480418161816901F4804104918169FE
:101BF00041F0040181618069264D00F004000490E9
:101C00004FF4007000900220019003200390694679
:101C10002846FEF79BFF2815CDE9000469462846B3
:101C20000294FEF793FF1D4D1B488027C5E9000471
:101C3000C5E902472C616C61AC612846EC61FEF796
:101C400057FF08B1FEF7FDFBF5636E62134D1248B6
:101C50004435143801C5102091C5104845F8104985
:101C600044306C61AC61EC61FEF742FF08B1FEF7F5
:101C7000E8FBB5630022114625206E62FFF7C8F825
:101C80002520FFF7B7F805B0F0BD0000003801408F
:101C90000010024000080140580002400C010020E2
:101CA00090F84230202B01D00220704721B11AB1A8
:101CB0000023036300F02ABC0120704770B5006860
:101CC0003549884266D13548002535A18570FEF733
:101CD000C1FA324CE41EC8B132A1E01CFEF7BAFAD8
:101CE00010B331A1E01CFEF7B5FAF8B12FA1E01C4A
:101CF000FEF7B0FAE0B12EA1E01CFEF7ABFAC8B1D6
:101D00002CA1E01CFEF7A6FAC8B115E00120606323
:101D10002248C01EFEF758FA204982B26423C91E29
:101D2000254800F059F807E065630BE0234802E01E
:101D3000A56001E02248A060606B18B123E002209A
:101D4000606320E01FA11548FEF784FA1E4D48B9D4
:101D5000A06800F071FF2A461C4B00F0DDFC00F08B
:101D6000A9FCA060606B70B919A10C48FEF772FA6B
:101D700048B9A06800F060FF2A46164B00F072FEDA
:101D800000F098FCA060BDE87040022203490A48B8
:101D9000FFF786BF70BD000000380140030000203F
:101DA00031310000303000003232000032300000AB
:101DB0003231000032330000C40000200000A04097
:101DC0000000E040303100009A9999999999B93F03
:101DD000313000009999C93F2DE9F843044690F845
:101DE0004100984616460D46202802D00220BDE844
:101DF000F88385B17EB100206064212084F8410021
:101E0000FEF79AFFA6848146E684A0682027B0F5F5
:101E1000805F02D003E00120E9E7206910B12E467F
:101E200000250EE000260CE08021204600F089FB12
:101E3000A8B9C6B116F8010B21684860E08C401EB5
:101E4000E084E08C4B464FF00002CDF80080002883
:101E5000EAD14FF04001204600F073FB40B184F816
:101E600041700320C3E735F8020BC0F30800E3E735
:101E700084F841700020BAE77047FEE73EB50021C4
:101E80001F48009101911D4A0291026092158260E3
:101E900001250573017504244FF460220461C261B9
:101EA0004160FEF753FB08B1FEF7CBFA0520009422
:101EB000CDE9015069461248FEF7C6FA08B1FEF7AF
:101EC000C0FA0220019069460D48FEF7BDFA08B13C
:101ED000FEF7B7FA0320019069460948FEF7B4FA05
:101EE00008B1FEF7AEFA694605480194FEF7ACFA70
:101EF000002801D0FEF7A5FA3EBD000000240140F5
:101F00004C0000200D4808B5416941F001014161D4
:101F10004069002200F00100009011460E20FEF7FB
:101F200077FF0E20FEF766FF002211460F20FEF716
:101F30006FFFBDE808400F20FEF75CBF00100240B5
:101F40002DE9F04186B000252348009501950295C2
:101F50000395816941F020018161816901F02001CF
:101F60000491816941F004018161816901F00401FA
:101F70000491816941F0080181618069174F00F087
:101F800008000490012241F603413846FEF7CEFED8
:101F9000DFF84C804FF41846002231464046FEF7E9
:101FA000C5FE002218213846FEF7C0FE41F61B4050
:101FB00001248DE83100694638460394FEF7C6FDDA
:101FC0000096CDE90145694640460394FEF7BEFD03
:101FD00006B0BDE8F081000000100240000C014096
:101FE0000008014010B58AB0002407941C216846FF
:101FF0000894FEF708F916484FF08041C0E9001434
:1020000040F6B731C0E9024104618461FFF7D5FBB6
:1020100008B1FEF716FA079407A90D480894FFF7D0
:1020200073FA08B1FEF70DFA6020009043F698208D
:10203000CDE901040022694605480494FFF757FBE7
:1020400008B1FEF7FEF90248FFF72CFB0AB010BDFD
:102050007C0000200C4810B50A4901604FF416516D
:102060004160002181600C22C160C0E904128161DD
:10207000C161FFF775FD002803D0BDE81040FEF7F1
:10208000E0B910BD00380140C4000020FEE7FEE7C3
:10209000704700000EB5002002900720009001203C
:1020A000019069460948FEF7CFF90848FEF7A6FBFC
:1020B00008B1FEF7C6F964210448FEF701FB08B138
:1020C000FEF7BFF90148FEF73DFA0EBD4C000020B7
:1020D0007047FEF737BE30B593B028216846FEF74B
:1020E00092F814210AA8FEF78EF8002501200F951A
:1020F00010951195010412958DE8230004904FF47A
:10210000E010CDE90810022407946846FFF756F85E
:1021100008B172B6FEE70AA90F2081E831004FF43A
:102120008060CDE90D0502210AA8FEF76BFF08B11A
:1021300072B6FEE74FF4004011900F940FA8FEF71F
:10214000EBFE002801D072B6FEE713B030BD704739
:102150000148FFF70EBA00007C000020F0B50268CD
:10216000194B1A4C1A4D4FF08047984205D0B8428F
:1021700003D0A04201D0A84203D122F070064A68E1
:102180003243984205D0B84203D0A04201D0A842C1
:1021900003D122F44074CA6822434C6922F08002C1
:1021A000224302608A68C2620A688262984201D150
:1021B00009690163012141610169C90703D001690E
:1021C00021F001010161F0BD002C0140000400403C
:1021D0000008004010B501F01F030121046A994076
:1021E0008C430462016A9A401143016210BD0000F1
:1021F00030B5036A026A22F0010202624268846911
:1022000024F073050C682C4323F002058B682B43E4
:102210000A4DA8420BD123F00805CB6822F4407286
:102220002B434D6923F0040315438A692A43426016
:10223000846149684163036230BD0000002C0140A5
:1022400030B5026A036A23F01003036243688469AD
:102250000D6824F4E64444EA05248D6822F0200247
:1022600042EA05120B4DA8420ED1CD6822F0800241
:1022700042EA05124D6923F4406343EA85038D6900
:1022800022F0400243EA8503436084614968816328
:10229000026230BD002C014030B5036A026A22F4AC
:1022A000807202624268C46923F4007324F07305EB
:1022B0000C682C438D6843EA05230C4DA8420ED1CF
:1022C000CD6823F4006343EA05234D6922F44052AC
:1022D00042EA05128D6923F4806342EA05124260E6
:1022E000C4614968C163036230BD0000002C014035
:1022F00030B5046A026A22F4805202624268C369FD
:102300000D6823F4E64343EA05238D6824F4005462
:1023100044EA0534064DA84204D14D6922F48042B6
:1023200042EA85124260C36149680164046230BDBB
:10233000002C014010B5406A0021C185C184FFF71F
:10234000D8FA10BD01680C3151E8002F22F49072C8
:1023500041E80023002BF5D10168143151E8002F2A
:1023600022F0010241E80023002BF5D1016B012985
:1023700009D101680C3151E8002F22F0100241E828
:102380000023002BF5D1202180F8421000210163A9
:10239000704708B590F84210222901D0022008BDEC
:1023A00082684FF480539A4201D1016921B1816A58
:1023B0009A421BD04AB10AE00268816A5268C2F3AD
:1023C00008020A80816A891C08E0026972B1026809
:1023D000526802F07F020A70816A491C8162C18DD5
:1023E000491E0904090CC18503D01BE0026852682C
:1023F000F1E70168CA6822F02002CA600168CA6871
:1024000022F48072CA6001684A6922F001024A61BE
:10241000202180F8421000214163026B012A03D081
:10242000FFF74CFC002008BD016301680C3151E846
:10243000002F22F0100241E80023002BF5D10168A3
:102440000A68D20602D50A6849680091818DFFF7B3
:102450004FFAE7E770B5044600680169E26821F4C5
:102460004051114301612169A06808436169084333
:102470002168CA6841F20C639A430243CA6020682B
:102480004169A26921F44071114341611E492068EC
:10249000884202D1FEF75CFE01E0FEF749FE00EB48
:1024A000C00101EB0012606864218000B2FBF0F310
:1024B000B3FBF1F36FF018067343B2FBF0F5B2FB18
:1024C000F0F605EB8305322303EB0515B5FBF1F5BB
:1024D000B6FBF1F605F0F00505EB0615B2FBF0F6DC
:1024E000B2FBF0F0B0FBF1F06FF01802504306EBD6
:1024F000800003EB0010B0FBF1F0216800F00F004A
:102500002844886070BD00000038014081628285E7
:10251000C28500214164222180F84210016921B165
:102520000168CA6842F48072CA6001684A6942F070
:1025300001024A610068C16841F02001C1600020C9
:1025400070472DE9F843984617460D460446089E05
:1025500024E0701C22D0FEF7EFFBA0EB0800B04295
:102560001AD8CEB12068C168490717D5802D15D07B
:10257000402D13D00168C94309070FD40168002515
:10258000406800902046FFF7DDFE0820606484F874
:1025900040500120BDE8F8830320FBE72068006875
:1025A00035EA000004D00020B842D2D00020F1E784
:1025B0000120F9E70148FFF79DB90000C4000020A1
:1025C000FEE70907090E002804DB00F1E02080F88F
:1025D0000014704700F00F0000F1E02080F8141D97
:1025E0007047000010B5FFF755FD00F073FB194967
:1025F00000F084FB6FF00B0100F07EFC164C4FF0F6
:10260000FF31206300F078FC00F016FB4FF06632DB
:10261000124B00F029F90022114B00F025F900229D
:10262000104B00F079F800F045F80F49206188421E
:1026300001DD216104E010F1FF4F01D30020206192
:10264000206900F02BFB094909684863A06A401C17
:10265000A06210BD333353400000002066660A407C
:102660000070A74000407F4000803B457C00002078
:10267000FEF770FBFFF72FFDFFF762FCFFF742FC50
:10268000FFF7FCFBFFF7AEFCFFF7E4FC0021064878
:10269000FFF7DEF8022205490548FFF701FB00BFFE
:1026A000FFF7A0FFFCE700007C00002003000020F3
:1026B000C400002021F00042A2F16052B2F5801F58
:1026C00001F0004328BFD2F17F6C0BD95FEA001CF8
:1026D00043EAC20242EB507018BF704728BF20F097
:1026E00001007047B2F5801FBCBF184670474FEA23
:1026F000410C1CF5001F02D2084600F0C6BB70B5A5
:1027000000F05CF900000089FFF7F6BF4FF00040D1
:10271000A0F580007047000010B591EA030F48BF94
:1027200083F0004300F1A681841A71EB030C05D2FB
:10273000121943EB0C03001B61EB0C01DFF824E1E1
:102740004FEA1154A4EB135C1EEA430F18BF9EEA34
:10275000445F73D023EA0E03DCF1200E21EA04511A
:1027600043F4801332D322FA0CFE10EB0E0023FA4E
:102770000CFE41EB0E01CCF1200E03FA0EFE10EB25
:102780000E0051F10001B1F5801FCCF1200E32D2C4
:1027900001EB045112FA0EF2BDE8104058BF704729
:1027A000401C38BF5FEA420218BF7047002814BFC0
:1027B00020F0010041F100014FEA410313F5001F31
:1027C00038BF7047A1F1C04100F046B9012A43EB80
:1027D0000302ACF1200CDCF11F0E32BF4FF0000EF3
:1027E00023FA0CF310EB030041EB0451B4EB115F3F
:1027F000D0D0A1EB045101F5801149085FEA300007
:1028000001EB04510ED350F1000038BF12FA0EFE56
:1028100008D1BDE81040C9E7401C38BF5FEA42025A
:10282000CAD1C3E7BDE810404FEA410313F5001FCA
:1028300038BF7047A1F1C04100F00EB99EEA445F75
:1028400008D011EA5E0FBDE8104004BF01F000415E
:1028500000207047BDE8104070B500F0AFF800BF31
:1028600064FBBE3E0000E0FFDFF848C170B51CEA23
:10287000111E1EBF1CEA13159EEA0C0F95EA0C0FE1
:1028800000F06F8081EA030423EA4C134EEAD47E01
:1028900021EA4C1141F4801143F48013AE44A1FBB2
:1028A000024CA0FB0365AEF17F7E361955EB0C059B
:1028B000A1FB034C4CF10003A0FB021C16EB0C0621
:1028C000654153F10003094218BF46F0010613F4B5
:1028D000007F0BD14FEA03314FEA0530340341EA60
:1028E000155140EA16506FF003020AE04FEAC32187
:1028F0004FEAC520F40241EA555140EA56506FF0C4
:10290000020202EB2E4201EB025585EACE710AD09B
:102910005FEA440C18BF24F0004450F1000041F17C
:10292000000120EAD47040F2FE7C624500D270BD06
:10293000A84214BF4FF080444FF04044002E08BF1F
:102940000024BEF1806FA8BFA1F1C041BDE8704076
:1029500080F282804FF0000001F1C04101F000419F
:1029600070479EEA0C0F0CEA131518BF95EA0C0F7E
:1029700006D04FF0000081EA030E0EF0004170BD5A
:1029800000F01CF88900013E00F007B800F009B81B
:102990004FEA430C5FEA5C5C08D081EA030100F077
:1029A0005BB84FEA410C5FEA5C5CF6D14FF0000087
:1029B000014970470000FF070000F87F0EF1020E8A
:1029C0002EF0030E5EF8046B364205D4012A43EB69
:1029D000030515F5001F12D8012841EB010C1CF569
:1029E000001F0CD80ED14FEAD17C15F5001F0CEB5F
:1029F0004C0C0CF1020C08BF4CEBD37C04E04FF004
:102A0000080C01E04FEAD37C0CEB4C0526FA05F6E6
:102A100006F00706B6F1040C06D20EEB860CBDE8F4
:102A200070404CF0010C6047DFE80CF0090B02022B
:102A30004FF000414FF00000A1F5002170BD194694
:102A40001046012851EB010418BFD4F5001484BFCF
:102A5000002001F0004170BD0808A0F500114FEA08
:102A60003101704710B591EA030F48BF83F000436E
:102A70003FF55AAE841A71EB030C07D212198CF091
:102A8000004C43EB0C03001B61EB0C01DFF8A4E1ED
:102A90004FEA1154A4EB135C1EEA430F18BF9EEAE1
:102AA000445F00F0B08023EA6E03524221EA0451F1
:102AB000C3EB6E0338BF5B1EDCF1200E25D322FA78
:102AC0000CFE10EB0E0043FA0CFE41EB0E01CCF1B4
:102AD000200E03FA0EFE10EB0E0051F10001CCF1B6
:102AE000200E29D412FA0EF201EB0451BDE8104079
:102AF00058BF7047401C1CBFB2F1004F7047002800
:102B00000CBF491C20F00100704712EB020E43EB92
:102B1000030218BF4FF0010E4EEA4202ACF1200C46
:102B2000DCF11E0E54D943FA0CFE10EB0E0051F1ED
:102B3000FF31CCF11E0ED5D50EF1010E12FA0EFEAC
:102B4000404141EB010101EB445C5FEA5C5C10D960
:102B500010EBDE7001EB045138BFBEF1004FBDE851
:102B6000104018BF704700280CBF491C20F001001E
:102B7000704730D24FEAD42C11F5001124F40064D0
:102B80001BD0B1FA81F20B3AA41AA41ED2F1200391
:102B9000914030FA03F31943904001EBCC71002CC3
:102BA00001EB0451BDE81040A8BF704701F1C041DE
:102BB0004FF0000001F000417047B0FA80F310FAC6
:102BC00003F100D110BDE41A173C4805C90AE4E737
:102BD00001EB045110BD491001EB0451BDE8104058
:102BE0004FEA300002E04FF0000170474A0008BF92
:102BF0000042F8D0B2F5001F28BF704701F0004135
:102C00004FF0000070479EEA445F07D011EA5E0F64
:102C1000BDE8104004BF002100207047BDE810400F
:102C200070B5FFF7CBFE00BF40DFF63E83F00041FA
:102C3000104670470000E0FF43004FEAD30C4FEA14
:102C40003C0C43401FBF40070CF1605113F0FE4F96
:102C500070471CF0006F03D100200CF0004170475A
:102C60000CF0004343EA507010B540EACC0000F08D
:102C7000C6F800BF000000924FEA0001FFF7ECBE6B
:102C80004FF000414FF00000A1F500217047000017
:102C9000014800F0FFB800BF0000C07F41000B0EEC
:102CA000D3F19E0208D950F400034FEA032323FA1C
:102CB00002F048BF4042704710B500F0A0F800BFD6
:102CC00049922480002070476FF0004282EA200081
:102CD00070470000B0FA80F310FA03F2C3F19D03CD
:102CE0000AD0D90501EB1220530638BF704700F116
:102CF000010008BF20F00100704700004FF47F0C76
:102D00001CEAD0121EBF1CEAD11392EA0C0F93EA00
:102D10000C0F00F0478090EA010F48BF42F4807228
:102D20004FF0004C4CEA00204CEA012102EB030278
:102D3000A0FB0113A2F50002002918BF43F0010314
:102D40005B0028BF4FEA330342EB22425FEA132CB9
:102D50004CEBC2502EBFBCEB436FB2F57C0F7047FB
:102D60004FEA036CBCF1004F08BF20F00100B2F540
:102D70007C0F38BF70470BD582F0FF0212F5803F01
:102D8000C8BF704700F1C040D8BF00F00040704796
:102D900000F5000C5FEA4C0C48BF7047B0F1C04032
:102DA00000F073B890EA010F0CEAD11348BF42F467
:102DB0008072624538BF634504D280EA010000F0AA
:102DC0000040704710B500F01AF800BF8900013EBE
:102DD00000F007B800F009B85FEA410C5FEA1C6C2C
:102DE00008D080EA010000F050B85FEA400C5FEACA
:102DF0001C6CF6D14FF00040A0F5800070470EF13A
:102E0000020E2EF0030E5EF8044B244204D44FEA67
:102E10004102B2F17F4F11D84FEA4003B3F17F4F27
:102E20000CD80ED14FEAD07CB2F17F4F0CEB4C0C9A
:102E30000CF1020C08BF4CEBD17C04E04FF0080C05
:102E400001E04FEAD17C0CEB4C0324FA03F404F0CC
:102E50000704B4F1040C06D20EEB840CBDE810405C
:102E60004CF0010C6047DFE80CF0070802024FF05D
:102E70000040A0F5800010BD0846420018BFD2F106
:102E8000807288BF00F0004010BDFF2141EAD050A1
:102E9000C00570470CF00F03092B08BF082000F095
:102EA00051800A2B0BD0082B18BF704708BF1CF0AD
:102EB000400F0AD04FF000004FF0000170471CF0A7
:102EC000400F18BF4FF0004070471CF0100F08D0A3
:102ED00020F0704300F07F4242EAD3014FEA437092
:102EE000704700F0604021F07F4242EA000201F0AA
:102EF0007F4040EA727070474FF0FF0212EAD052F2
:102F00001CBF92F0FF038B42C2BFD14200EBC15005
:102F10007047002A0AD0002B0BD0002900F0004097
:102F2000A4BF40F0FE4040F40000704700F00040B5
:102F3000704743024FF00B0C18BF4CF0806C7FF4CD
:102F4000A7AE70471CF4801F11D01CF4E02F03D0F3
:102F50006FEACC31490070474FF04050EFF30082E8
:102F600022F0704242EA000282F3008870474FF07C
:102F700000007047010202030405060708090A0B56
:102F80000C0D0E0F101001020203040506070809BC
:102F90000A0B0C0D0E0F10100000000000000000C6
:102FA00001020304060708090000000001020304EF
:102FB000D02F0008000000204C000000280100086D
:102FC0001C3000084C000020AC0700004401000841
:102FD00030300000000000000000C0400000000091
:102FE00000000000000000000000000000000000E1
:102FF00000000000000000000000000000000000D1
:1030000000000000000000000000000001000000BF
:0C301000100000000000000000127A0018
:04000005080000ED02
:00000001FF
